{
  "contractName": "ERC721Enumerable",
  "abi": [
    {
      "anonymous": false,
      "inputs": [
        {
          "indexed": true,
          "internalType": "address",
          "name": "from",
          "type": "address"
        },
        {
          "indexed": true,
          "internalType": "address",
          "name": "to",
          "type": "address"
        },
        {
          "indexed": true,
          "internalType": "uint256",
          "name": "tokenId",
          "type": "uint256"
        }
      ],
      "name": "Transfer",
      "type": "event"
    },
    {
      "inputs": [
        {
          "internalType": "address",
          "name": "_owner",
          "type": "address"
        }
      ],
      "name": "balanceOf",
      "outputs": [
        {
          "internalType": "uint256",
          "name": "",
          "type": "uint256"
        }
      ],
      "stateMutability": "view",
      "type": "function"
    },
    {
      "inputs": [
        {
          "internalType": "uint256",
          "name": "_tokenId",
          "type": "uint256"
        }
      ],
      "name": "ownerOf",
      "outputs": [
        {
          "internalType": "address",
          "name": "",
          "type": "address"
        }
      ],
      "stateMutability": "view",
      "type": "function"
    },
    {
      "inputs": [],
      "name": "totalSupply",
      "outputs": [
        {
          "internalType": "uint256",
          "name": "",
          "type": "uint256"
        }
      ],
      "stateMutability": "view",
      "type": "function"
    }
  ],
  "bytecode": "0x608060405234801561001057600080fd5b50610458806100206000396000f3fe608060405234801561001057600080fd5b50600436106100415760003560e01c806318160ddd146100465780636352211e1461006457806370a0823114610094575b600080fd5b61004e6100c4565b60405161005b9190610251565b60405180910390f35b61007e6004803603810190610079919061029d565b6100d1565b60405161008b919061030b565b60405180910390f35b6100ae60048036038101906100a99190610352565b610181565b6040516100bb9190610251565b60405180910390f35b6000600280549050905090565b60008060008084815260200190815260200160002060009054906101000a900473ffffffffffffffffffffffffffffffffffffffff169050600073ffffffffffffffffffffffffffffffffffffffff168173ffffffffffffffffffffffffffffffffffffffff1603610178576040517f08c379a000000000000000000000000000000000000000000000000000000000815260040161016f90610402565b60405180910390fd5b80915050919050565b60008073ffffffffffffffffffffffffffffffffffffffff168273ffffffffffffffffffffffffffffffffffffffff16036101f1576040517f08c379a00000000000000000000000000000000000000000000000000000000081526004016101e890610402565b60405180910390fd5b600160008373ffffffffffffffffffffffffffffffffffffffff1673ffffffffffffffffffffffffffffffffffffffff168152602001908152602001600020549050919050565b6000819050919050565b61024b81610238565b82525050565b60006020820190506102666000830184610242565b92915050565b600080fd5b61027a81610238565b811461028557600080fd5b50565b60008135905061029781610271565b92915050565b6000602082840312156102b3576102b261026c565b5b60006102c184828501610288565b91505092915050565b600073ffffffffffffffffffffffffffffffffffffffff82169050919050565b60006102f5826102ca565b9050919050565b610305816102ea565b82525050565b600060208201905061032060008301846102fc565b92915050565b61032f816102ea565b811461033a57600080fd5b50565b60008135905061034c81610326565b92915050565b6000602082840312156103685761036761026c565b5b60006103768482850161033d565b91505092915050565b600082825260208201905092915050565b7f4552433732313a206f776e65722063616e6e6f7420626520746865207a65726f60008201527f2061646472657373000000000000000000000000000000000000000000000000602082015250565b60006103ec60288361037f565b91506103f782610390565b604082019050919050565b6000602082019050818103600083015261041b816103df565b905091905056fea264697066735822122032ce46bc27ff10fc103f07ca1d44e278a990daf1d1fa02a50cb98678251e2b7164736f6c634300080d0033",
  "immutableReferences": {},
  "source": "// SPDX-License-Identifier: MIT\npragma solidity 0.8.13;\n\nimport './ERC721.sol';\n\ncontract ERC721Enumerable is ERC721 {\n  uint256[] private allTokens;\n\n  function totalSupply() external view returns(uint256) {\n    return allTokens.length;\n  }\n\n  function _mint(address _to, uint256 _tokenId) internal override(ERC721) {\n    super._mint(_to, _tokenId);\n    _addTokensToTotalSupply(_tokenId);\n  }\n\n  function _addTokensToTotalSupply(uint256 _tokenId) private {\n    allTokens.push(_tokenId);\n  }\n}",
  "sourcePath": "/Users/andre/Documents/nft-marketplace/src/contracts/ERC721Enumerable.sol",
  "compiler": {
    "name": "solc",
    "version": "0.8.13+commit.abaa5c0e.Emscripten.clang"
  },
  "schemaVersion": "3.4.7",
  "updatedAt": "2022-04-21T12:56:42.462Z",
  "devdoc": {
    "kind": "dev",
    "methods": {},
    "version": 1
  },
  "userdoc": {
    "kind": "user",
    "methods": {},
    "version": 1
  }
}