{
  "contractName": "MyContract",
  "abi": [
    {
      "inputs": [],
      "stateMutability": "nonpayable",
      "type": "constructor"
    },
    {
      "anonymous": false,
      "inputs": [
        {
          "indexed": true,
          "internalType": "address",
          "name": "from",
          "type": "address"
        },
        {
          "indexed": true,
          "internalType": "address",
          "name": "to",
          "type": "address"
        },
        {
          "indexed": true,
          "internalType": "uint256",
          "name": "tokenId",
          "type": "uint256"
        }
      ],
      "name": "Transfer",
      "type": "event"
    },
    {
      "inputs": [
        {
          "internalType": "address",
          "name": "_owner",
          "type": "address"
        }
      ],
      "name": "balanceOf",
      "outputs": [
        {
          "internalType": "uint256",
          "name": "",
          "type": "uint256"
        }
      ],
      "stateMutability": "view",
      "type": "function",
      "constant": true
    },
    {
      "inputs": [],
      "name": "getName",
      "outputs": [
        {
          "internalType": "string",
          "name": "",
          "type": "string"
        }
      ],
      "stateMutability": "view",
      "type": "function",
      "constant": true
    },
    {
      "inputs": [],
      "name": "getSymbol",
      "outputs": [
        {
          "internalType": "string",
          "name": "",
          "type": "string"
        }
      ],
      "stateMutability": "view",
      "type": "function",
      "constant": true
    },
    {
      "inputs": [
        {
          "internalType": "uint256",
          "name": "",
          "type": "uint256"
        }
      ],
      "name": "nfts",
      "outputs": [
        {
          "internalType": "string",
          "name": "",
          "type": "string"
        }
      ],
      "stateMutability": "view",
      "type": "function",
      "constant": true
    },
    {
      "inputs": [
        {
          "internalType": "uint256",
          "name": "_tokenId",
          "type": "uint256"
        }
      ],
      "name": "ownerOf",
      "outputs": [
        {
          "internalType": "address",
          "name": "",
          "type": "address"
        }
      ],
      "stateMutability": "view",
      "type": "function",
      "constant": true
    },
    {
      "inputs": [],
      "name": "totalSupply",
      "outputs": [
        {
          "internalType": "uint256",
          "name": "",
          "type": "uint256"
        }
      ],
      "stateMutability": "view",
      "type": "function",
      "constant": true
    },
    {
      "inputs": [
        {
          "internalType": "string",
          "name": "_kryptoBird",
          "type": "string"
        }
      ],
      "name": "mint",
      "outputs": [],
      "stateMutability": "nonpayable",
      "type": "function"
    }
  ],
  "bytecode": "0x60806040523480156200001157600080fd5b506040518060400160405280600481526020017f4e414d45000000000000000000000000000000000000000000000000000000008152506040518060400160405280600581526020017f53594d424c0000000000000000000000000000000000000000000000000000008152508181816000908051906020019062000098929190620000bc565b508060019080519060200190620000b1929190620000bc565b5050505050620001d0565b828054620000ca906200019b565b90600052602060002090601f016020900481019282620000ee57600085556200013a565b82601f106200010957805160ff19168380011785556200013a565b828001600101855582156200013a579182015b82811115620001395782518255916020019190600101906200011c565b5b5090506200014991906200014d565b5090565b5b80821115620001685760008160009055506001016200014e565b5090565b7f4e487b7100000000000000000000000000000000000000000000000000000000600052602260045260246000fd5b60006002820490506001821680620001b457607f821691505b602082108103620001ca57620001c96200016c565b5b50919050565b61101680620001e06000396000f3fe608060405234801561001057600080fd5b506004361061007d5760003560e01c8063265aa6211161005b578063265aa621146100dc5780636352211e1461010c57806370a082311461013c578063d85d3d271461016c5761007d565b8063150704011461008257806317d7de7c146100a057806318160ddd146100be575b600080fd5b61008a610188565b6040516100979190610982565b60405180910390f35b6100a861021a565b6040516100b59190610982565b60405180910390f35b6100c66102ac565b6040516100d391906109bd565b60405180910390f35b6100f660048036038101906100f19190610a18565b6102b9565b6040516101039190610982565b60405180910390f35b61012660048036038101906101219190610a18565b610365565b6040516101339190610a86565b60405180910390f35b61015660048036038101906101519190610acd565b610416565b60405161016391906109bd565b60405180910390f35b61018660048036038101906101819190610c2f565b6104cd565b005b60606001805461019790610ca7565b80601f01602080910402602001604051908101604052809291908181526020018280546101c390610ca7565b80156102105780601f106101e557610100808354040283529160200191610210565b820191906000526020600020905b8154815290600101906020018083116101f357829003601f168201915b5050505050905090565b60606000805461022990610ca7565b80601f016020809104026020016040519081016040528092919081815260200182805461025590610ca7565b80156102a25780601f10610277576101008083540402835291602001916102a2565b820191906000526020600020905b81548152906001019060200180831161028557829003601f168201915b5050505050905090565b6000600480549050905090565b600581815481106102c957600080fd5b9060005260206000200160009150905080546102e490610ca7565b80601f016020809104026020016040519081016040528092919081815260200182805461031090610ca7565b801561035d5780601f106103325761010080835404028352916020019161035d565b820191906000526020600020905b81548152906001019060200180831161034057829003601f168201915b505050505081565b6000806002600084815260200190815260200160002060009054906101000a900473ffffffffffffffffffffffffffffffffffffffff169050600073ffffffffffffffffffffffffffffffffffffffff168173ffffffffffffffffffffffffffffffffffffffff160361040d576040517f08c379a000000000000000000000000000000000000000000000000000000000815260040161040490610d4a565b60405180910390fd5b80915050919050565b60008073ffffffffffffffffffffffffffffffffffffffff168273ffffffffffffffffffffffffffffffffffffffff1603610486576040517f08c379a000000000000000000000000000000000000000000000000000000000815260040161047d90610d4a565b60405180910390fd5b600360008373ffffffffffffffffffffffffffffffffffffffff1673ffffffffffffffffffffffffffffffffffffffff168152602001908152602001600020549050919050565b6006816040516104dd9190610da6565b908152602001604051809103902060009054906101000a900460ff1615610539576040517f08c379a000000000000000000000000000000000000000000000000000000000815260040161053090610e09565b60405180910390fd5b600581908060018154018082558091505060019003906000526020600020016000909190919091509080519060200190610574929190610846565b50600060016005805490506105899190610e58565b905061059533826105d0565b60016006836040516105a79190610da6565b908152602001604051809103902060006101000a81548160ff0219169083151502179055505050565b6105da82826105e7565b6105e3816107a8565b5050565b600073ffffffffffffffffffffffffffffffffffffffff168273ffffffffffffffffffffffffffffffffffffffff1603610656576040517f08c379a000000000000000000000000000000000000000000000000000000000815260040161064d90610efe565b60405180910390fd5b61065f816107d4565b1561069f576040517f08c379a000000000000000000000000000000000000000000000000000000000815260040161069690610f6a565b60405180910390fd5b816002600083815260200190815260200160002060006101000a81548173ffffffffffffffffffffffffffffffffffffffff021916908373ffffffffffffffffffffffffffffffffffffffff1602179055506001600360008473ffffffffffffffffffffffffffffffffffffffff1673ffffffffffffffffffffffffffffffffffffffff16815260200190815260200160002060008282546107419190610f8a565b92505081905550808273ffffffffffffffffffffffffffffffffffffffff16600073ffffffffffffffffffffffffffffffffffffffff167fddf252ad1be2c89b69c2b068fc378daa952ba7f163c4a11628f55a4df523b3ef60405160405180910390a45050565b600481908060018154018082558091505060019003906000526020600020016000909190919091505550565b6000806002600084815260200190815260200160002060009054906101000a900473ffffffffffffffffffffffffffffffffffffffff169050600073ffffffffffffffffffffffffffffffffffffffff168173ffffffffffffffffffffffffffffffffffffffff161415915050919050565b82805461085290610ca7565b90600052602060002090601f01602090048101928261087457600085556108bb565b82601f1061088d57805160ff19168380011785556108bb565b828001600101855582156108bb579182015b828111156108ba57825182559160200191906001019061089f565b5b5090506108c891906108cc565b5090565b5b808211156108e55760008160009055506001016108cd565b5090565b600081519050919050565b600082825260208201905092915050565b60005b83811015610923578082015181840152602081019050610908565b83811115610932576000848401525b50505050565b6000601f19601f8301169050919050565b6000610954826108e9565b61095e81856108f4565b935061096e818560208601610905565b61097781610938565b840191505092915050565b6000602082019050818103600083015261099c8184610949565b905092915050565b6000819050919050565b6109b7816109a4565b82525050565b60006020820190506109d260008301846109ae565b92915050565b6000604051905090565b600080fd5b600080fd5b6109f5816109a4565b8114610a0057600080fd5b50565b600081359050610a12816109ec565b92915050565b600060208284031215610a2e57610a2d6109e2565b5b6000610a3c84828501610a03565b91505092915050565b600073ffffffffffffffffffffffffffffffffffffffff82169050919050565b6000610a7082610a45565b9050919050565b610a8081610a65565b82525050565b6000602082019050610a9b6000830184610a77565b92915050565b610aaa81610a65565b8114610ab557600080fd5b50565b600081359050610ac781610aa1565b92915050565b600060208284031215610ae357610ae26109e2565b5b6000610af184828501610ab8565b91505092915050565b600080fd5b600080fd5b7f4e487b7100000000000000000000000000000000000000000000000000000000600052604160045260246000fd5b610b3c82610938565b810181811067ffffffffffffffff82111715610b5b57610b5a610b04565b5b80604052505050565b6000610b6e6109d8565b9050610b7a8282610b33565b919050565b600067ffffffffffffffff821115610b9a57610b99610b04565b5b610ba382610938565b9050602081019050919050565b82818337600083830152505050565b6000610bd2610bcd84610b7f565b610b64565b905082815260208101848484011115610bee57610bed610aff565b5b610bf9848285610bb0565b509392505050565b600082601f830112610c1657610c15610afa565b5b8135610c26848260208601610bbf565b91505092915050565b600060208284031215610c4557610c446109e2565b5b600082013567ffffffffffffffff811115610c6357610c626109e7565b5b610c6f84828501610c01565b91505092915050565b7f4e487b7100000000000000000000000000000000000000000000000000000000600052602260045260246000fd5b60006002820490506001821680610cbf57607f821691505b602082108103610cd257610cd1610c78565b5b50919050565b7f4552433732313a206f776e65722063616e6e6f7420626520746865207a65726f60008201527f2061646472657373000000000000000000000000000000000000000000000000602082015250565b6000610d346028836108f4565b9150610d3f82610cd8565b604082019050919050565b60006020820190508181036000830152610d6381610d27565b9050919050565b600081905092915050565b6000610d80826108e9565b610d8a8185610d6a565b9350610d9a818560208601610905565b80840191505092915050565b6000610db28284610d75565b915081905092915050565b7f4572726f72202d204e465420616c726561647920657869737473000000000000600082015250565b6000610df3601a836108f4565b9150610dfe82610dbd565b602082019050919050565b60006020820190508181036000830152610e2281610de6565b9050919050565b7f4e487b7100000000000000000000000000000000000000000000000000000000600052601160045260246000fd5b6000610e63826109a4565b9150610e6e836109a4565b925082821015610e8157610e80610e29565b5b828203905092915050565b7f4552433732313a206d696e74696e6720746f20746865207a65726f206164647260008201527f6573730000000000000000000000000000000000000000000000000000000000602082015250565b6000610ee86023836108f4565b9150610ef382610e8c565b604082019050919050565b60006020820190508181036000830152610f1781610edb565b9050919050565b7f4552433732313a20746f6b656e20616c7265616479206d696e74656400000000600082015250565b6000610f54601c836108f4565b9150610f5f82610f1e565b602082019050919050565b60006020820190508181036000830152610f8381610f47565b9050919050565b6000610f95826109a4565b9150610fa0836109a4565b9250827fffffffffffffffffffffffffffffffffffffffffffffffffffffffffffffffff03821115610fd557610fd4610e29565b5b82820190509291505056fea2646970667358221220d2d6b8c29b8de99d7cb4b2b5b6e462321635abf6e0975a18c6b7e628cff8773464736f6c634300080d0033",
  "immutableReferences": {},
  "source": "// SPDX-License-Identifier: MIT\npragma solidity 0.8.13;\n\nimport './ERC721Connector.sol';\n\ncontract MyContract is ERC721Connector {\n  string[] public nfts;\n  mapping(string => bool) _nftExists;\n\n  function mint(string memory _kryptoBird) public {\n\n    require(!_nftExists[_kryptoBird], 'Error - NFT already exists');\n\n    nfts.push(_kryptoBird);\n\n    uint256 _id = nfts.length - 1;\n\n    _mint(msg.sender, _id);\n\n    _nftExists[_kryptoBird] = true;\n  }\n\n  constructor() ERC721Connector('NAME', 'SYMBL') {}\n}",
  "sourcePath": "/Users/andre/Documents/nft-marketplace/src/contracts/MyContract.sol",
  "compiler": {
    "name": "solc",
    "version": "0.8.13+commit.abaa5c0e.Emscripten.clang"
  },
  "schemaVersion": "3.4.7",
  "updatedAt": "2022-04-21T14:53:38.773Z",
  "networkType": "ethereum",
  "devdoc": {
    "kind": "dev",
    "methods": {},
    "version": 1
  },
  "userdoc": {
    "kind": "user",
    "methods": {},
    "version": 1
  }
}